:10000000930200001303A000170E0100130E8EFFD1
:10001000970E0100938E8E0163D66202139A22001E
:10002000330ACA0183230A00B3835340B3836300B6
:10003000139A2200330ADA0123207A0093821200F5
:100040006FF09FFDB7030100170F0100130F0F039F
:10005000970F0100938FCF02170E0100130E8EFF32
:100060009302000063D662069384030023209F005E
:1000700013090000130AB0FF930A300263586902A3
:1000800093192900B389D90183A9090063DC990078
:10009000635A3A0163D859019384090023209F00D1
:1000A00023A02F01130919006FF05FFD139A22009E
:1000B000330ACA0123209A0083AA0F00939A2A00C8
:1000C000B38ADA0123A07A00938212006FF09FF9BD
:0400D0006F000000BD
:020000021000EC
:1000000015000000FBFFFFFF03000000F6FFFFFFED
:1000100004000000E9FFFFFF23000000F6FFFFFFE0
:080020002900000002000000AD
:00000001FF
