:10000000170102001301010017050100130585FF08
:1000100097050100938505FF13064000EF0040049B
:1000200093030500170501001305C5FE97050100A0
:10003000938545FE13064000EF008002130E050075
:1000400063567E00930EA0006F008000930EB000F8
:10005000170E0100130E0EFD2320DE016F000000BD
:10006000130141FE232C1100232A81002328910033
:100070002326210123243101232241012320510180
:100080001304000093040000130905009389050080
:10009000130A000063D6C402139A2400330A3A01FB
:1000A00003250A00939A2400B38A2A0183A50A0033
:1000B000EF0080033304A400938414006FF09FFDCD
:1000C00013050400832081010324410183240101DD
:1000D0000329C10083298100032A4100832A0100EA
:1000E0001301C10167800000130181FF2322110069
:1000F00023208100130400006308B0003304A4002F
:100100009385F5FF6FF05FFF130504008320410026
:0C0110000324010013018100678000003F
:020000021000EC
:1000000003000000050000000100000009000000DE
:1000100001000000060000000200000003000000D4
:00000001FF
