:10000000170102001301010017050100130585FF08
:1000100097050100938505FF13064000EF0040049B
:1000200093030500170501001305C5FE97050100A0
:10003000938545FE13064000EF008002130E050075
:1000400063567E00930EA0006F008000930EB000F8
:10005000170E0100130E0EFD2320DE016F000000BD
:10006000130181FE232A11002328810023269100F9
:100070002324210123223101232041011304000004
:10008000930400001309050093890500130A00007A
:1000900063D6C402139A2400330A3A0103250A00E6
:1000A000939A2400B38A2A0183A50A00EF00400333
:1000B0003304A400938414006FF09FFD1305040023
:1000C00083204101032401018324C100032981000D
:1000D00083294100032A0100130181016780000088
:1000E000130181FE232A1100232881002326910079
:1000F0002324210123223101232041011304000084
:100100006308B0003304A4009385F5FF6FF05FFF30
:100110001305040083204101032401018324C1004D
:100120000329810083294100032A01001301810171
:0401300067800000E4
:020000021000EC
:1000000003000000050000000100000009000000DE
:1000100001000000060000000200000003000000D4
:00000001FF
