:1000000013038000970A0100938ACA01930A000033
:10001000B70200809382F2FF23A05A0093030000EE
:10002000170E0100130E0EFE63D06302139F230010
:10003000330FCF0183290F0063D45901938A09003C
:10004000938313006FF05FFE97090100938989FD88
:10005000970A0100938A0AFD6F0040006F000000BC
:020000021000EC
:10000000F9FFFFFF03000000F7FFFFFF08000000FB
:100010000F000000F0FFFFFF0000000003000000E1
:00000001FF
