:100000001705010013050500930530001306500085
:10001000970601009386860013072000930740008F
:1000200013086000EF0040019702010093828200F4
:1000300023A0A2006F000000130181FE232A1100FB
:10004000232881002326910023242101232231012A
:100050002320410113040000938906009306080041
:10006000EF00800493040500138509009305070041
:100070001386070093060800EF000003130905002C
:10008000338424411305040083204101032401012A
:100090008324C1000329810083294100032A010030
:1000A0001301810167800000130141FE232C110020
:1000B000232A8100232891002326210123243101B2
:1000C00023224101232051011304000093840600E0
:1000D00093D4140013090000930A0500635094029E
:1000E000131A2400330A5A0103250A00EF00800680
:1000F0003309A900130414006FF05FFE138B060090
:10010000135B1B0093840600930506006350DB021B
:10011000131A2B00330A5A0103250A00EF0080034B
:100120003309A900130B1B006FF05FFE13050900D4
:100130008320810103244101832401010329C1009B
:1001400083298100032A4100832A01001301C10190
:1001500067800000130181FE232A110023288100FB
:100160002326910023242101232231012320410150
:10017000930400001383050063086000B384A400A7
:100180001303F3FF6FF05FFF138504008320410129
:10019000032401018324C100032981008329410034
:0C01A000032A01001301810167800000A8
:020000021000EC
:100000000300000005000000FFFFFFFF09000000E3
:10001000070000000400000001000000FAFFFFFFDD
:1000200002000000030000000500000008000000BE
:00000001FF
