:1000000017030100130383009304100023209300BF
:10001000970201009382C2FF1309200023A022014E
:1000200097020100938242FE9309100023A032013F
:1000300097020100938202FD130A500023A042019F
:1000400063402A0593830400170E0100130E8EFCF3
:1000500023207E00B384340123209300938903007E
:10006000170E0100130E4EFA23203E01130919004A
:10007000170E0100130ECEF923202E016FF05FFC46
:040080006F0000000D
:00000001FF
