:10000000170102001301010013040000170501008D
:10001000130545FF93056000EF00C004930405003D
:1000200017030100130303FE93030000130E600087
:10003000139E2300330E6E0003290E0013191900BE
:10004000630899009383130063DCC3016FF05FFEC4
:100050009304100017030100130343FC23209300B3
:100060006F000000130141FF232081002322910033
:1000700023242101130405009384050013090000C3
:10008000930A0000635E990093192900B3898900DF
:1000900003AA0900B38A4A01130919006FF09FFEF1
:1000A00013850A00032401008324410003298100F1
:0800B0001301C100678000008C
:020000021000EC
:1000000002000000010000000A00000002000000E1
:080010000200000003000000E3
:00000001FF
