:10000000130141FE232C1100232A81002328910093
:1000100023262101232431012322410123205101E0
:10002000130A0000930400001309050093890500DA
:1000300063462001930410003309204163582001D6
:10004000330A3A011309F9FF6FF05FFF635690001E
:10005000330540416F00800013050A0083208101B1
:1000600003244101832401010329C1008329810064
:10007000032A4100832A01001301C10167800000A7
:10008000130141FE232C1100232A81002328910013
:100090002326210123243101232241012320510160
:1000A0001304000013090500130504009305040060
:1000B000EFF01FF593090500138A050063D62901A7
:1000C000130414006FF05FFE130504008320810108
:1000D00003244101832401010329C10083298100F4
:1000E000032A4100832A01001301C1016780000037
:1000F000130101FE232E8100130401029307050062
:100100002324B4FEA307F4FE832784FE0347F4FEF2
:100110002380E700130000000324C1011301010242
:0401200067800000F4
:10012400130101FD23261102232481021304010378
:10013400232EA4FC232CB4FC232604FE232404FE37
:100144006F004005832784FE939727000327C4FD8F
:10015400B307F70083A60700832784FE939727003D
:100164000327C4FDB307F70083A70700938507009F
:1001740013850600EFF09FE8130705008327C4FEEC
:10018400B387E7002326F4FE832784FE93871700B2
:100194002324F4FE032784FE832784FDE344F7FA33
:1001A4000325C4FEEFF09FED9307050013850700B8
:1001B4008320C1020324810213010103678000002C
:1001C400130101FE232E1100232C810013040102CC
:1001D40093055000B707010013850700EFF05FF4A3
:1001E4002326A4FE93055000B70701001385470199
:1001F400EFF01FF32324A4FE0327C4FE832784FE09
:10020400B3A7E70093F7F70FA303F4FE030774FE05
:10021400B70701009385870213050700EFF01FED70
:040224006F00000067
:020000021000EC
:100000000500000002000000FDFFFFFF07000000E8
:0400100006000000E6
:1000140006000000FFFFFFFF0100000000000000D9
:0400240003000000D5
:04000003000001C434
:00000001FF
