:100000001306000093060000130705009387050000
:10001000130E00006356F60213050E00939323009F
:10002000B383E30003A50300130E05009305050049
:10003000EF000002B386A600130616006FF09FFDC6
:1000400013850600EF000009678000009305050096
:10005000130101FD2326810213040103232EA4FCB6
:10006000232CB4FC232604FE232404FE8327C4FD92
:1000700063D60702930710002324F4FE8327C4FDF0
:10008000B307F040232EF4FC6F0040010327C4FEA9
:10009000832784FDB307F7002326F4FE8327C4FDDE
:1000A0001387F7FF232EE4FCE39207FE832784FEE9
:1000B000638807008327C4FEB307F0406F00800009
:1000C0008327C4FE138507000324C1021301010323
:0400D0006780000045
:1000D400130101FD232611022324810213040103C9
:1000E400232EA4FC232604FE6F0000018327C4FEF4
:1000F400938717002326F4FE8325C4FE0325C4FE3C
:10010400EFF0DFF4130705008327C4FDE340F7FE97
:100114008327C4FE138507008320C10203248102C0
:080124001301010367800000D4
:10012C00130101FE232E1100232C81001304010264
:10013C0093055000B707010013850700EFF09FEB04
:10014C002326A4FE93055000B70701001385470131
:10015C00EFF05FEA2324A4FE0327C4FE832784FE6A
:10016C00B3A7E70093F7F70FA303F4FE030774FE9E
:10017C00B70701009385870213050700EFF05FECCA
:10018C00130000008320C10103248101130101022B
:04019C006780000078
:020000021000EC
:100000000500000002000000FDFFFFFF07000000E8
:0400100006000000E6
:1000140006000000FFFFFFFF010000006400000075
:0400240003000000D5
:040000030000012CCC
:00000001FF
