:10000000130101FE232E8100130401029307050052
:100010002324B4FEA307F4FE832784FE0347F4FEE3
:100020002380E700130000000324C1011301010233
:0400300067800000E5
:10003400130101FD2326810213040103232EA4FCD2
:10004400232CB4FC232604FE232404FE8327C4FDAE
:1000540063D60702930710002324F4FE8327C4FD0C
:10006400B307F040232EF4FC6F0040010327C4FEC5
:10007400832784FDB307F7002326F4FE8327C4FDFA
:100084001387F7FF232EE4FCE39207FE832784FE05
:10009400638807008327C4FEB307F0406F00800025
:1000A4008327C4FE138507000324C102130101033F
:0400B4006780000061
:1000B800130101FD232611022324810213040103E5
:1000C800232EA4FC232604FE6F0000018327C4FE10
:1000D800938717002326F4FE8325C4FE0325C4FE58
:1000E800EFF0DFF4130705008327C4FDE340F7FEB4
:1000F8008327C4FE138507008320C10203248102DD
:080108001301010367800000F0
:10011000130101FD2326110223248102130401038C
:10012000232EA4FC232CB4FC232604FE232404FE4B
:100130006F004005832784FE939727000327C4FDA3
:10014000B307F70083A60700832784FE9397270051
:100150000327C4FDB307F70083A7070093850700B3
:1001600013850600EFF01FED130705008327C4FE7B
:10017000B387E7002326F4FE832784FE93871700C6
:100180002324F4FE032784FE832784FDE344F7FA47
:100190000325C4FEEFF05FF2930705001385070007
:1001A0008320C10203248102130101036780000040
:1001B000130101FE232E1100232C810013040102E0
:1001C00093055000B707010013850700EFF05FF4B7
:1001D0002326A4FE93055000B707010013854701AD
:1001E000EFF01FF32324A4FE0327C4FE832784FE1D
:1001F000B3A7E70093F7F70FA303F4FE030774FE1A
:10020000B70701009385870213050700EFF05FDF52
:040210006F0000007B
:020000021000EC
:100000000500000002000000FDFFFFFF07000000E8
:0400100006000000E6
:1000140006000000FFFFFFFF0100000000000000D9
:0400240003000000D5
:04000003000001B048
:00000001FF
