:10000000130101FD2326810213040103232EA4FC06
:10001000232CB4FC8327C4FD83A707002326F4FE0A
:10002000832784FD03A707008327C4FD23A0E700DF
:10003000832784FD0327C4FE23A0E70013000000EC
:0C0040000324C1021301010367800000CB
:10004C00130101FD2326810213040103232EA4FCBA
:10005C00232CB4FC232AC4FC2328D4FC832704FDC2
:10006C00939727002320F4FE832784FD2326F4FE98
:10007C00832784FD2324F4FE032784FD832744FD7A
:10008C00B307F70013D7F701B307F70093D717405F
:10009C00938717002322F4FE6F00C00A832784FE87
:1000AC00939727000327C4FDB307F70003A70700A6
:1000BC00832744FE939727008326C4FDB387F6005D
:1000CC0083A7070063C2E704832784FE9397270066
:1000DC000327C4FD3307F7008327C4FE938617005C
:1000EC002326D4FE93972700832604FEB387F600BD
:1000FC000327070023A0E700832784FE93871700BC
:10010C002324F4FE6F000004832744FE93972700FA
:10011C000327C4FD3307F7008327C4FE938617001B
:10012C002326D4FE93972700832604FEB387F6007C
:10013C000327070023A0E700832744FE93871700BB
:10014C002322F4FE032784FD832744FDB307F70025
:10015C0013D7F701B307F70093D71740138707009E
:10016C00832784FE6348F700032744FD832744FE5E
:10017C00E356F7F2832744FD93871700032744FEC9
:10018C006314F70A6F000004832784FE93972700FB
:10019C000327C4FD3307F7008327C4FE938617009B
:1001AC002326D4FE93972700832604FEB387F600FC
:1001BC000327070023A0E700832784FE93871700FB
:1001CC002324F4FE032784FD832744FDB307F700A3
:1001DC0013D7F701B307F70093D71740138707001E
:1001EC00832784FEE352F7FA6F00C004832744FE92
:1001FC00939727000327C4FD3307F7008327C4FE1A
:10020C00938617002326D4FE93972700832604FE9B
:10021C00B387F6000327070023A0E700832744FEDB
:10022C00938717002322F4FE032744FD832744FE03
:10023C00E35EF7FA832784FD2326F4FE6F00800328
:10024C008327C4FE93972700032704FE3307F70088
:10025C008327C4FE939727008326C4FDB387F6003B
:10026C000327070023A0E7008327C4FE938717000A
:10027C002326F4FE032744FD8327C4FEE352F7FC38
:10028C0013000000130000000324C102130101033A
:04029C006780000077
:1002A000130101FE232E1100232C810013040102EF
:1002B0002326A4FE2324B4FE2322C4FE2320D4FE3E
:1002C000032704FE832744FE3307F74093071000FB
:1002D0006310F706832744FE939727000327C4FE85
:1002E000B307F70003A70700832704FE93972700AF
:1002F0008326C4FEB387F60083A7070063D8E70A06
:10030000832744FE939727000327C4FEB306F70014
:10031000832704FE939727000327C4FEB307F70043
:100320009385070013850600EFF09FCD6F0000084E
:10033000032744FE832704FE630AF706032744FECF
:10034000832704FEB307F70013D7F701B307F700BD
:1003500093D7174093860700032644FE832584FE27
:100360000325C4FEEFF0DFF3032744FE832704FEDA
:10037000B307F70013D7F701B307F70093D7174078
:1003800093871700832604FE13860700832584FEC7
:100390000325C4FEEFF0DFF0832684FE032604FE6F
:1003A000832544FE0325C4FEEFF05FCA130000005E
:1003B0008320C10103248101130101026780000031
:1003C000130101FE232E1100232C810013040102CE
:1003D000930730002326F4FE930770002324F4FED5
:1003E000232204FE832784FE9387F7FF938607006A
:1003F00013060000832584FE0325C4FEEFF05FEAA8
:1004000093070000138507008320C10103248101A5
:080410001301010267800000E6
:04000003000003C036
:00000001FF
