:100000009302000013038000B7030100170E0100E4
:10001000130E4EFF970E0100938ECE00170F0100B6
:10002000130F4F02970F0100938F0F0263DE6204DC
:100030009384030023209F00130900006354690286
:1000400093192900B389C90183A9090063D89900CC
:100050009384090023209F0023A02F011309190076
:100060006FF0DFFD139A2200330ADA0123209A0091
:1000700083AA0F00939A2A00B38ACA0123A07A00A8
:0C008000938212006FF09FFA6F000000E6
:020000021000EC
:10000000F9FFFFFF03000000F7FFFFFF08000000FB
:100010000F000000F0FFFFFF0000000003000000E1
:00000001FF
