:1000000013038000170C0100130C0C04130C0000E8
:10001000970A0100938A0A03930A0000B70200803E
:100020009382F2FF93030000930E0000170E01006D
:10003000130E4EFD970F0100938FCFFE63D2630422
:10004000930E000063D26E02139F2E00330FFF0148
:10005000032B0F0063D65901938A0900138C0E00FD
:10006000938E1E006FF01FFE139F2300330F6F014E
:10007000130B0F00130F0300938313006FF01FFC8B
:080080006F0040006F0000005A
:020000021000EC
:10000000F9FFFFFF03000000F7FFFFFF08000000FB
:100010000F000000F0FFFFFF0000000003000000E1
:00000001FF
